:100000000C945D000C9485000C9485000C94850084
:100010000C9485000C9485000C9485000C9485004C
:100020000C9485000C9485000C9485000C9485003C
:100030000C9485000C9485000C9485000C9485002C
:100040000C9462030C9485000C9485000C9485003C
:100050000C9485000C9485000C9485000C9485000C
:100060000C9485000C94850000000008000201003B
:100070000003040700000000000000000000000072
:10008000250028002B0000000000240027002A0083
:10009000040404040404040402020202020203032E
:1000A0000303030301020408102040800102040836
:1000B0001020010204081020CA0411241FBECFEF33
:1000C000D8E0DEBFCDBF11E0A0E0B1E0ECE8FAE09F
:1000D00002C005900D92AE35B107D9F721E0AEE52B
:1000E000B1E001C01D92A239B207E1F710E0CDE501
:1000F000D0E004C02197FE010E943E05CC35D10717
:10010000C9F70E94AC030C9444050C9400000097BE
:10011000D1F02FEC37E0DC010E94370524E630E017
:1001200040E050E00E94DC042F5F3F4F4F4F5F4F95
:1001300030938E0120938D011092900110928F01C7
:1001400010929101089510928E0110928D0181E01C
:1001500090E09093900180938F01089590E0FC01CE
:10016000EC55FF4F249180579F4FFC0184918823C9
:1001700099F090E0880F991FFC01EA57FF4FA59175
:10018000B491FC01E458FF4F859194918FB7F89496
:10019000EC91E22BEC938FBF0895CF93DF934091C6
:1001A0007E01242F2250330BB901A7E6B1E0EC0108
:1001B00030E020E0241788F4E991F0E0EC5CFE4F99
:1001C00090812617370739F05A969C935A972F5FDC
:1001D0003F4F1196EFCF9068F7CFDF91CF91089501
:1001E0004F925F926F927F92BF92CF92DF92EF9287
:1001F000FF920F931F93CF93DF936B017C01EA0172
:1002000080917E0124E0829FC0011124FC01E45F03
:10021000FE4F4081518162817381415051096109D2
:1002200071094C155D056E057F05A4F0885F9E4F32
:10023000FC01408151816281738181E090E0A0E006
:10024000B0E0841B950BA60BB70BC816D906EA06BF
:10025000FB066CF480E095E220917E01821708F0A5
:1002600057C0FE01E80FF11D90838F5FF5CFB12CD1
:10027000F7FE0CC085E28883F094E094D094C0949B
:10028000C11CD11CE11CF11CBB24B394E0917E0184
:10029000BE1630F50B2D10E0E150FF0BE01BF10B0B
:1002A000EE0FFF1FEE0FFF1FE45FFE4F40805180F7
:1002B00062807380C701B601A30192010E94DC0431
:1002C000FE01E00FF11F2083A22FB0E0A3019201F5
:1002D0000E94FB04C61AD70AE80AF90AB394D6CFDB
:1002E00080916D01811114C044E2E82FF0E020916B
:1002F0007E012250330BE217F30754F4EC0FFD1F7D
:100300009081911103C040838F5FEFCF9A30E0F767
:10031000DF91CF911F910F91FF90EF90DF90CF90E1
:10032000BF907F906F905F904F90089590E0FC0198
:10033000E859FF4F2491FC01EC55FF4F3491FC012B
:10034000E057FF4FE491EE23C9F0222339F0233028
:1003500001F1A8F4213019F1223029F1F0E0EE0F7B
:10036000FF1FE458FF4FA591B4918FB7F894EC911B
:10037000611126C030953E233C938FBF08952730EE
:10038000A9F02830C9F0243049F7809180008F7D92
:1003900003C0809180008F7780938000DFCF84B589
:1003A0008F7784BDDBCF84B58F7DFBCF8091B0008C
:1003B0008F778093B000D2CF8091B0008F7DF9CF3E
:1003C0003E2BDACFCF93DF93C82FD0E080917F010F
:1003D000D81758F4ED2FF0E0E959FE4F60916A010B
:1003E00087850E949601DF5FF1CFEC2FF0E0E9599D
:1003F000FE4F609168018781DF91CF910C94960147
:10040000CF93DF93C82FD0E080917E01D81758F4A6
:10041000ED2FF0E0E959FE4F6091680187810E945D
:100420009601DF5FF1CFEC2FF0E0E959FE4F6091CC
:100430006A018785DF91CF910C9496011F93CF932A
:10044000DF93C82FD0E0C959DE4F609167018F81DB
:100450000E94960110E06A9680917F011817A8F417
:10046000E12FF0E0888190E0012E02C095958795FC
:100470000A94E2F780FF07C0E959FE4F60916901D5
:1004800087850E9496011F5FE7CFDF91CF911F9173
:1004900008950F931F93CF93C82FE82FF0E0E959E9
:1004A000FE4F6091690187850E94960101E010E08E
:1004B00002C0000F111FCA95E2F7C0E080917E01D3
:1004C000C81788F4EC2FF0E0E959FE4F828D90E0D8
:1004D00080239123892B29F06091670187810E94F5
:1004E0009601CF5FEBCFCF911F910F91089582308E
:1004F000910538F0880F991F880F991F059701976C
:10050000F1F70895CF92DF92EF92FF92CF9380910F
:100510006C0181119DC03FB7F89480916301909167
:100520006401A0916501B091660126B5A89B05C044
:100530002F3F19F00196A11DB11D3FBFBA2FA92F62
:10054000982F8827820F911DA11DB11D42E0880FB1
:10055000991FAA1FBB1F4A95D1F720919101409185
:10056000890150918A0160918B0170918C016C011D
:100570007D01C41AD50AE60AF70A40918F0150910D
:100580009001211104C040918D0150918E01052EE2
:10059000000C660B770BC416D506E606F7068CF141
:1005A0008093890190938A01A0938B01B0938C0171
:1005B0008091800190916B01911129C02223B1F0AB
:1005C00010929101809180018F5F809380019091C2
:1005D0007F01891710F01092800180918001CF91E6
:1005E000FF90EF90DF90CF900C9449020E940002A0
:1005F00080918F0190919001892B21F381E080936C
:100600009101CF91FF90EF90DF90CF90089522233A
:10061000B1F010929101809180018F5F80938001F1
:1006200090917E01891710F01092800180918001D5
:10063000CF91FF90EF90DF90CF900C941E020E941C
:10064000E20180918F0190919001892B21F3D6CF07
:1006500080916B01C0E081111AC080917F01C817A1
:1006600080F68C2F0E94490280918D0190918E011D
:100670000E9477028C2F0E94000280918F0190913E
:100680009001009711F00E947702CF5FE6CF809132
:100690007E01C81708F0B5CF8C2F0E941E028091F2
:1006A0008D0190918E010E9477028C2F0E94E201B1
:1006B00080918F0190919001009711F00E94770234
:1006C000CF5FE5CF1F920F920FB60F9211242F9399
:1006D0003F938F939F93AF93BF9380915F019091CE
:1006E0006001A0916101B091620130915E0123E04F
:1006F000230F2D3758F50196A11DB11D20935E01E2
:1007000080935F0190936001A0936101B0936201B7
:100710008091630190916401A0916501B09166019F
:100720000196A11DB11D8093630190936401A09374
:100730006501B0936601BF91AF919F918F913F91F9
:100740002F910F900FBE0F901F90189526E8230F42
:100750000296A11DB11DD2CFCF93DF93CDB7DEB7E7
:100760002C970FB6F894DEBF0FBECDBF789484B53A
:10077000826084BD84B5816084BD85B5826085BD9D
:1007800085B5816085BD80916E00816080936E002B
:10079000109281008091810082608093810080911D
:1007A00081008160809381008091800081608093CE
:1007B00080008091B10084608093B1008091B0008E
:1007C00081608093B00080917A00846080937A0089
:1007D00080917A00826080937A0080917A008160B3
:1007E00080937A0080917A00806880937A001092DA
:1007F000C1008091000190910101A0910201B0918E
:10080000030189879A87AB87BC8788E0E4E0F1E041
:10081000DE01119601900D928A95E1F781E08093B7
:100820006B0110926C0110926D0194E090937E0127
:1008300098E090937F018093670110926901109274
:10084000680180936A01FE013196A6E7B1E0CE010E
:10085000099621912D93E817F907D9F78985809397
:100860006E018A8580936F018B85809370018C85E2
:100870008093710110E080917E01181790F4812F10
:1008800090E09C0129593E4F7901F90187810E942E
:10089000AE0060916801F70187810E9496011F5F99
:1008A000EACFF12C80917F01F81650F090917E01F3
:1008B000E1E8F1E080E0981799F011928F5FFBCFAB
:1008C0000F2D10E009591E4FF80187850E94AE00D8
:1008D00060916A01F80187850E949601F394E2CF46
:1008E00080E00E94000280E00E94E2018AE590E040
:1008F0000E9487000E948202C12CD12C7601AE0199
:100900004F5F5F4FC701B6010E94F000CE01019614
:100910000E94CD000E9482023FEFC31AD30AE30A6D
:10092000F30A86EBC81681E1D806E104F10439F731
:1009300008E813E198EEE92E93E0F92EAE014F5F3F
:100940005F4F66EB71E180E090E00E94F000CE0125
:1009500001960E94CD000E948202F1E0EF1AF10898
:1009600069F784EFE82EFF24F39490E080E00E9482
:1009700087000E94820221E0E21AF108B1F78AE5BD
:1009800090E00E94870001501109A1F690E080E0FC
:100990000E944405E7E6F1E080ED97E097A386A387
:1009A00011A610A612A6178A118E12A213A214A2C3
:1009B00015A2148215820895052E97FB1EF400944B
:1009C0000E94F30457FD07D00E94060507FC03D0E0
:1009D0004EF40C94F30450954095309521953F4F7B
:1009E0004F4F5F4F089590958095709561957F4F1B
:1009F0008F4F9F4F08950E942805A59F900DB49F8B
:100A0000900DA49F800D911D11240895A1E21A2E2E
:100A1000AA1BBB1BFD010DC0AA1FBB1FEE1FFF1FA2
:100A2000A217B307E407F50720F0A21BB30BE40BF2
:100A3000F50B661F771F881F991F1A9469F7609539
:100A40007095809590959B01AC01BD01CF010895F3
:100A5000A29FB001B39FC001A39F700D811D1124FF
:100A6000911DB29F700D811D1124911D08950E944A
:100A70002805B7FF0895821B930B0895EE0FFF1F03
:0C0A80000590F491E02D0994F894FFCF4C
:100A8C0002030405060708090A0B0C0D01000000FF
:100A9C000A00000064000000E803000010270000BA
:100AAC00A086010040420F008096980000E1F505F9
:100ABC0000CA9A3B3F065B4F666D7D077F6F777C64
:100ACC00395E79713D76300E763800543F7367503D
:0E0ADC006D783E3E00766E5B00408063080041
:00000001FF
